{
  "_format": "hh-sol-artifact-1",
  "contractName": "BuyMeACoffee",
  "sourceName": "contracts/BuyMeACoffee.sol",
  "abi": [
    {
      "inputs": [],
      "stateMutability": "nonpayable",
      "type": "constructor"
    },
    {
      "anonymous": false,
      "inputs": [
        {
          "indexed": true,
          "internalType": "address",
          "name": "from",
          "type": "address"
        },
        {
          "indexed": false,
          "internalType": "uint256",
          "name": "timestamp",
          "type": "uint256"
        },
        {
          "indexed": false,
          "internalType": "string",
          "name": "name",
          "type": "string"
        },
        {
          "indexed": false,
          "internalType": "string",
          "name": "message",
          "type": "string"
        }
      ],
      "name": "NewMemo",
      "type": "event"
    },
    {
      "inputs": [
        {
          "internalType": "string",
          "name": "_name",
          "type": "string"
        },
        {
          "internalType": "string",
          "name": "_message",
          "type": "string"
        }
      ],
      "name": "buyCoffee",
      "outputs": [],
      "stateMutability": "payable",
      "type": "function"
    },
    {
      "inputs": [],
      "name": "getMemos",
      "outputs": [
        {
          "components": [
            {
              "internalType": "address",
              "name": "from",
              "type": "address"
            },
            {
              "internalType": "uint256",
              "name": "timestamp",
              "type": "uint256"
            },
            {
              "internalType": "string",
              "name": "name",
              "type": "string"
            },
            {
              "internalType": "string",
              "name": "message",
              "type": "string"
            }
          ],
          "internalType": "struct BuyMeACoffee.Memo[]",
          "name": "",
          "type": "tuple[]"
        }
      ],
      "stateMutability": "view",
      "type": "function"
    },
    {
      "inputs": [],
      "name": "getOwner",
      "outputs": [
        {
          "internalType": "address",
          "name": "",
          "type": "address"
        }
      ],
      "stateMutability": "view",
      "type": "function"
    },
    {
      "inputs": [],
      "name": "withdrawTips",
      "outputs": [],
      "stateMutability": "nonpayable",
      "type": "function"
    }
  ],
  "bytecode": "0x608060405234801561001057600080fd5b50336000806101000a81548173ffffffffffffffffffffffffffffffffffffffff021916908373ffffffffffffffffffffffffffffffffffffffff160217905550610b09806100606000396000f3fe60806040526004361061003f5760003560e01c8063204206e1146100445780633aaa74b214610060578063865c517214610077578063893d20e8146100a2575b600080fd5b61005e600480360381019061005991906105cc565b6100cd565b005b34801561006c57600080fd5b50610075610255565b005b34801561008357600080fd5b5061008c6102b5565b6040516100999190610817565b60405180910390f35b3480156100ae57600080fd5b506100b7610498565b6040516100c491906107fc565b60405180910390f35b60003411610110576040517f08c379a000000000000000000000000000000000000000000000000000000000815260040161010790610839565b60405180910390fd5b600160405180608001604052803373ffffffffffffffffffffffffffffffffffffffff16815260200142815260200184815260200183815250908060018154018082558091505060019003906000526020600020906004020160009091909190915060008201518160000160006101000a81548173ffffffffffffffffffffffffffffffffffffffff021916908373ffffffffffffffffffffffffffffffffffffffff1602179055506020820151816001015560408201518160020190805190602001906101df9291906104c1565b5060608201518160030190805190602001906101fc9291906104c1565b5050503373ffffffffffffffffffffffffffffffffffffffff167fc56140e05f516509ae28110e0f72e17558a7561630dad2647c3ae87d986e365c42848460405161024993929190610859565b60405180910390a25050565b60008054906101000a900473ffffffffffffffffffffffffffffffffffffffff1673ffffffffffffffffffffffffffffffffffffffff166108fc479081150290604051600060405180830381858888f193505050506102b357600080fd5b565b60606001805480602002602001604051908101604052809291908181526020016000905b8282101561048f57838290600052602060002090600402016040518060800160405290816000820160009054906101000a900473ffffffffffffffffffffffffffffffffffffffff1673ffffffffffffffffffffffffffffffffffffffff1673ffffffffffffffffffffffffffffffffffffffff1681526020016001820154815260200160028201805461036c906109d8565b80601f0160208091040260200160405190810160405280929190818152602001828054610398906109d8565b80156103e55780601f106103ba576101008083540402835291602001916103e5565b820191906000526020600020905b8154815290600101906020018083116103c857829003601f168201915b505050505081526020016003820180546103fe906109d8565b80601f016020809104026020016040519081016040528092919081815260200182805461042a906109d8565b80156104775780601f1061044c57610100808354040283529160200191610477565b820191906000526020600020905b81548152906001019060200180831161045a57829003601f168201915b505050505081525050815260200190600101906102d9565b50505050905090565b60008060009054906101000a900473ffffffffffffffffffffffffffffffffffffffff16905090565b8280546104cd906109d8565b90600052602060002090601f0160209004810192826104ef5760008555610536565b82601f1061050857805160ff1916838001178555610536565b82800160010185558215610536579182015b8281111561053557825182559160200191906001019061051a565b5b5090506105439190610547565b5090565b5b80821115610560576000816000905550600101610548565b5090565b6000610577610572846108c3565b61089e565b90508281526020810184848401111561058f57600080fd5b61059a848285610996565b509392505050565b600082601f8301126105b357600080fd5b81356105c3848260208601610564565b91505092915050565b600080604083850312156105df57600080fd5b600083013567ffffffffffffffff8111156105f957600080fd5b610605858286016105a2565b925050602083013567ffffffffffffffff81111561062257600080fd5b61062e858286016105a2565b9150509250929050565b60006106448383610774565b905092915050565b6106558161095a565b82525050565b6106648161095a565b82525050565b600061067582610904565b61067f8185610927565b935083602082028501610691856108f4565b8060005b858110156106cd57848403895281516106ae8582610638565b94506106b98361091a565b925060208a01995050600181019050610695565b50829750879550505050505092915050565b60006106ea8261090f565b6106f48185610938565b93506107048185602086016109a5565b61070d81610a99565b840191505092915050565b60006107238261090f565b61072d8185610949565b935061073d8185602086016109a5565b61074681610a99565b840191505092915050565b600061075e601a83610949565b915061076982610aaa565b602082019050919050565b600060808301600083015161078c600086018261064c565b50602083015161079f60208601826107de565b50604083015184820360408601526107b782826106df565b915050606083015184820360608601526107d182826106df565b9150508091505092915050565b6107e78161098c565b82525050565b6107f68161098c565b82525050565b6000602082019050610811600083018461065b565b92915050565b60006020820190508181036000830152610831818461066a565b905092915050565b6000602082019050818103600083015261085281610751565b9050919050565b600060608201905061086e60008301866107ed565b81810360208301526108808185610718565b905081810360408301526108948184610718565b9050949350505050565b60006108a86108b9565b90506108b48282610a0a565b919050565b6000604051905090565b600067ffffffffffffffff8211156108de576108dd610a6a565b5b6108e782610a99565b9050602081019050919050565b6000819050602082019050919050565b600081519050919050565b600081519050919050565b6000602082019050919050565b600082825260208201905092915050565b600082825260208201905092915050565b600082825260208201905092915050565b60006109658261096c565b9050919050565b600073ffffffffffffffffffffffffffffffffffffffff82169050919050565b6000819050919050565b82818337600083830152505050565b60005b838110156109c35780820151818401526020810190506109a8565b838111156109d2576000848401525b50505050565b600060028204905060018216806109f057607f821691505b60208210811415610a0457610a03610a3b565b5b50919050565b610a1382610a99565b810181811067ffffffffffffffff82111715610a3257610a31610a6a565b5b80604052505050565b7f4e487b7100000000000000000000000000000000000000000000000000000000600052602260045260246000fd5b7f4e487b7100000000000000000000000000000000000000000000000000000000600052604160045260246000fd5b6000601f19601f8301169050919050565b7f63616e27742062757920636f6666656520666f7220667265652100000000000060008201525056fea264697066735822122041c43fbca6de6ad8b9c3ce157c7460f442f260a8ecb67572534e7a79333f15e164736f6c63430008040033",
  "linkReferences": {},
  "deployedLinkReferences": {}
}